:10000000F8FF022099010000B13A0000693A0000AF
:10001000693A0000693A0000693A0000693A000054
:10002000693A0000693A0000693A0000B13A0000FC
:10003000B13A0000693A00000D4F0000114F000076
:10004000B13A0000B13A0000B13A0000B13A000004
:10005000B13A0000B13A0000B13A0000B13A0000F4
:10006000B13A0000B13A0000B13A0000B13A0000E4
:10007000B13A0000B13A0000B13A0000B13A0000D4
:10008000B13A0000B13A0000B13A0000B13A0000C4
:10009000B13A0000B13A0000B13A0000B13A0000B4
:1000A000B13A0000B13A0000B13A0000B13A0000A4
:1000B000B13A0000B13A0000B13A0000B13A000094
:1000C000B13A0000B13A0000B13A0000B13A000084
:1000D000B13A0000B13A0000B13A0000B13A000074
:1000E000B13A0000B13A0000B13A0000B13A000064
:1000F000B13A0000B13A0000B13A0000B13A000054
:10010000B13A0000B13A0000B13A0000B13A000043
:10011000B13A000031420000B13A0000B13A0000AB
:10012000B13A0000B13A0000B13A0000B13A000023
:10013000B13A0000B13A0000B13A0000B13A000013
:10014000B13A0000B13A0000B13A0000B13A000003
:10015000B13A0000B13A0000B13A0000B13A0000F3
:10016000B13A0000B13A0000B13A0000B13A0000E3
:10017000B13A0000B13A0000B13A0000B13A0000D3
:10018000B13A0000B13A0000B13A0000B13A0000C3
:10019000B13A0000B13A0000584B4CF2205210B571
:1001A0001A804DF628121A8000BF00BF03F084FCAD
:1001B000534B4FF030621A60524A9A60524ADA60EA
:1001C000524B4FF470021A60514A136813F4807353
:1001D00004D150490B604FF4A85313604E4B1A786A
:1001E000110703D51A7842F008021A704B4B4C499C
:1001F0002A221A704B4A4C4B8B4204D252F8040FFD
:1002000043F8040BF8E7494B494900228B4202D2DC
:1002100043F8042BFAE74749474A002352F82300E2
:1002200041F823000133662BF8D1444B444A802126
:1002300003F8011B9342FBD1424B3E4A1A60424BEA
:100240008A221A70A3F5805324225A70A0221A70B1
:100250009A799207FCD59A79D406FCD43B4A9379D3
:1002600003F00C03082B394BF9D103221A714622F3
:100270005A719A799006FCD5344A9179334B4906E4
:10028000FBD5334A4FF08271116009215160202261
:100290001A709A7902F00C020C2AFAD12D4B2E4AD0
:1002A0001A602E4B2E4A1A6000225A60072243F829
:1002B000042C2C4AC3F80C2D62B603F06DFE154BCE
:1002C0001B68DA0705D5284803F076FC274B284A37
:1002D0001A60284B1B785B0609D5244C244B2268F6
:1002E0009A4204D1204803F067FC0023236005F004
:1002F000ADFB03F0E7FB04F013FEFEE70E20054024
:1003000030800440823F04000100002B88ED00E0B3
:1003100010D0034014D0034002D0074000E0074053
:100320006811FF1FA0A50000F806FF1F6811FF1F3E
:100330000019FF1F0002FF1F0000000000E400E0A2
:1003400056E400E008ED00E00050064000400640A2
:100350004480044004800440C010050014E000E024
:10036000BFD4010000002020E47E8B611CE003402C
:10037000A5C3945A00F00740FFFFFFFFFFFFFFFFF8
:10038000FFFFFFFFFFFFFFFFFFFFFFFFFFFFFFFF7D
:10039000FFFFFFFFFFFFFFFFFFFFFFFFFFFFFFFF6D
:1003A000FFFFFFFFFFFFFFFFFFFFFFFFFFFFFFFF5D
:1003B000FFFFFFFFFFFFFFFFFFFFFFFFFFFFFFFF4D
:1003C000FFFFFFFFFFFFFFFFFFFFFFFFFFFFFFFF3D
:1003D000FFFFFFFFFFFFFFFFFFFFFFFFFFFFFFFF2D
:1003E000FFFFFFFFFFFFFFFFFFFFFFFFFFFFFFFF1D
:1003F000FFFFFFFFFFFFFFFFFFFFFFFFFFFFFFFF0D
:10040000FFFFFFFFFFFFFFFFFFFFFFFFDEF9FFFF23
:1004100010B5054C237833B9044B13B10448AFF33E
:1004200000800123237010BD6811FF1F0000000031
:100430009CA50000084B10B51BB108490848AFF354
:1004400000800848036803B910BD074B002BFBD0A0
:10045000BDE81040184700BF000000006C11FF1FEE
:100460009CA500006811FF1F0000000043680B708E
:1004700043681B0A4B70C3888B70C379CB70836849
:100480000B7183681B0A4B7143898B71C37ACB71E3
:10049000082070470B7843604A7843EA02234360A0
:1004A0008A7843EA02434360CA7843EA02634360BE
:1004B0000B7983604A7943EA022383608A7943EAAD
:1004C00002438360CA7943EA02638360082070476D
:1004D00000487047349E000000487047449E00006A
:1004E000F0B50C460A788280064614F8010F002306
:1004F00042EA0022B2801A4614F8010F98400833ED
:10050000202B42EA0002F7D1971D062F58D901F19E
:10051000050E551D73464C1913F8010F03F8010C15
:10052000A342F9D100234B5518460D44C6F808E004
:1005300015F8014F84400830202843EA0403F7D11E
:10054000381D0344834209D909320A440446013460
:1005500012F8015F02F8015CA342F8D80138CF1805
:100560000024084407F8014C2246F06017F8015BAC
:1005700095400832202A44EA0504F7D1181D0444A6
:10058000A04209D203330B440246013213F8015F43
:1005900003F8015CA242F8D30D1901380844002386
:1005A00005F8013C3061A8786B780A5DED780104AC
:1005B00041EA0323134343EA0563201D7361F0BD41
:1005C000551D01F1050EADE700487047689E00001B
:1005D00000487047849E00000B78F0B4037100233C
:1005E00006460C461D4614F8012F9A400833202B6E
:1005F00045EA0205F7D1681D052801F1040708D96D
:100600002C1D3B460C4413F8012F03F8012C9C428F
:10061000F9D10D4400232B71B760F0BC704700BFC7
:1006200000487047A89E000000487047BC9E00002C
:100630000048704758A0000000487047E09E000046
:1006400000487047049F0000004870471C9F00004E
:1006500000487047409F000000487047549F0000CA
:1006600003790B70012070470B78037101207047EC
:1006700000487047789F000000487047889F00003E
:10068000D0ED027A334B90ED087A3349334AC1ED0D
:10069000007AF5EEC07AF1EE10FA82B0C3ED027A7C
:1006A00083ED087A82ED007A28DDB5EEC07AF1EEAE
:1006B00010FA0DDD2A492B4B1E20002208601A601B
:1006C000294A2A4B12680192019A1A6002B07047B7
:1006D000F5EEC07AF1EE10FA29D4B5EEC07AF1EE5B
:1006E00010FA30D9F5EEC07AF1EE10FA13D91C49A0
:1006F0001C4B3220002208601A60E1E701D4ECDCD8
:10070000F0E7B5EEC07AF1EE10FA15D4F5EEC07A46
:10071000F1EE10FAE1DCB5EEC07AF1EE10FAE6DDAA
:100720000F49104B1420002208601A60C8E7B5EE8C
:10073000C07AF1EE10FAD0D509490A4B28200022E0
:1007400008601A60BCE70649064B0A2000220860D0
:100750001A60B5E7BC16FF1F3817FF1F8017FF1F71
:100760003417FF1FE016FF1F8417FF1FB816FF1F67
:10077000024B90F904201A71704700BF7417FF1FD5
:100780000B78037443690C30184700BF80697047C9
:1007900000487047789F000000487047889F00001D
:1007A000406B704700487047409F0000004870470A
:1007B000549F000090F8F804704700BF04F01ABA84
:1007C00043682DE9F0470B7043681B0A4B70C388E0
:1007D0008B70C379CB704368002B00F085800A468C
:1007E00000250426C36853F8253013711C0C1F0A1A
:1007F0001B0E94715771D37143680135AB42344677
:1008000002F1040206F10406ECD804F1080204F136
:10081000050A04F1060904F1070804F1090C04F1C2
:100820000A0E04F10B0517460C3403698B55036956
:100830001B0A01F80A30438A01F80930C37C01F829
:1008400008300369F3B101EB070E75460022836996
:1008500053F822300EF822301C0C1E0A1B0EAC700E
:100860006E70EB700369013293423C4605F104055A
:1008700007F10407EBD804F1050C04F1060EE51DA1
:100880003A460834C3698B54C3691B0A01F80C301B
:10089000C38B01F80E30C37F4B55C3690BB30F46B2
:1008A00080460026D8F8243053F8260005F068FB6F
:1008B000B10005463A19002325FA03F00833202B2E
:1008C00002F8010BF8D1D8F82430043438195958FB
:1008D0002A4602F0F5FFD8F81C300136B3422C440A
:1008E000E0D82046BDE8F087082217460C240B25E7
:1008F0004FF00A0E4FF0090C4FF007084FF00609B1
:100900004FF0050A042690E770B503790B70064690
:1009100080680D4605F034FB2A460446002324FA7D
:1009200003F10833202B02F8011FF8D1B168681DCC
:10093000224602F0C5FF601D70BD00BFF8B5838878
:100940000B7083881B0A4B70064680680D4605F0C5
:1009500017FB030E010A020C6B71A8702A71E97073
:1009600002460446B168A81D02F0AAFFF06805F02F
:1009700007FB611D024629440634002322FA03F0D6
:100980000833202B01F8010FF8D104342819F1683D
:10099000144402F095FF306905F0F2FA2A1907466F
:1009A000002327FA03F10833202B02F8011BF8D1AA
:1009B000043428193A46316902F082FF3819736904
:1009C0002B540544190A1A0C1B0E6970AA70EB709F
:1009D0000430F8BD084604F0F7B900BF2DE9F04F28
:1009E0000A784B788C78054642EA0323C8780E468D
:1009F00043EA0443696843EA00648C4283B000F22E
:100A0000BA806C60002C00F0BF8005F10809344604
:100A100000274FF00408A1796379227994F807E060
:100A2000E868090441EA0323134343EA0E63AB6019
:100A300000EB87000422494602F042FF6B68013751
:100A4000BB42424604F1040408F10408E3D802F171
:100A500008074146B94602F1050E901DD31D02F16B
:100A6000090B02F10A0802F10B0A02F10C04305CD6
:100A700016F80E20715C16F803E02B69000440EABA
:100A800002220A4342EA0E629A4200F292802A61EE
:100A90004AB305F1140A06EB09074FF00008B978CC
:100AA0007B783A78FC78A869090441EA0323134368
:100AB00043EA04636B6100EB88000422514602F0B4
:100AC000FFFE2B6908F1010843454C4607F1040776
:100AD00009F10409E3D804F1050B04F1060804F157
:100AE000070A4F46083416F8082016F80B00F35D85
:100AF00016F80A70E969120442EA0022134343EA35
:100B000007678F424FD8EF618FB34FF00009C84697
:100B100005F1200700239E46311911F8012B9A4058
:100B20000833202B4EEA020EF7D1201D8644704573
:100B300009D2E31C33440246013213F8011F03F8C3
:100B4000011C7245F8D306EB0E02431E02F8018C1D
:100B5000686A33442B6200EB8900042239467446EC
:100B600002F0AEFEEB6909F101094B45D2D82046EF
:100B700003B0BDE8F08FA100E86804F0DDFF6C6011
:100B8000E860002C7FF441AF0827B9460C244FF0F1
:100B90000B0A4FF00A084FF0090B072306204FF00D
:100BA000050E042163E7B900686A04F0C5FF6862B6
:100BB000A9E79100A869019204F0BEFF019AA8611B
:100BC00065E700BFD0ED027A17EE903AC3F3C75243
:100BD000F0B4002A00F0FD8002F5607215016DB2DC
:100BE000C2F30712F5EEC07AC3F3C344F1EE10FA74
:100BF00045EA04054FEA43174FF000044FEAE306C5
:100C000048BF62F07F02DB124B71CA718D710C70AC
:100C10004C708C70CF700E71D0ED037A17EE903A55
:100C2000C3F3C752002A00F0DE8002F5607215019E
:100C30006DB2C2F30712F5EEC07AC3F3C344F1EE0E
:100C400010FA45EA04054FEA43174FF000044FEA53
:100C5000E30648BF62F07F02DB124B73CA738D73E9
:100C60000C724C728C72CF720E73D0ED047A17EE48
:100C7000903AC3F3C752002A00F0B38002F56072C5
:100C800015016DB2C2F30712F5EEC07AC3F3C34487
:100C9000F1EE10FA45EA04054FEA43174FF000045D
:100CA0004FEAE30648BF62F07F02DB124B75CA755C
:100CB0008D750C744C748C74CF740E75D0ED067AEF
:100CC00017EE903AC3F3C752002A00F0888002F56D
:100CD000607215016DB2C2F30712F5EEC07AC3F36C
:100CE000C344F1EE10FA45EA04054FEA43174FF00A
:100CF00000044FEAE30648BF62F07F02DB124B7745
:100D0000CA778D770C764C768C76CF760E77D0EDD1
:100D1000077A17EE903AC3F3C752002A5DD002F566
:100D2000607215016DB2C2F30712F5EEC07AC3F31B
:100D3000C344F1EE10FA45EA04054FEA43174FF0B9
:100D400000044FEAE30648BF62F07F02DB1281F83D
:100D5000253081F8272081F8265081F8204081F83D
:100D6000214081F8224081F8237081F82460D0ED81
:100D7000087A17EE903AC3F3C75262B302F5607275
:100D8000140164B2C2F30712F5EEC07AC3F3C34094
:100D9000F1EE10FA44EA00044FEA43164FF0000067
:100DA0004FEAE30548BF62F07F02DB1281F82E4074
:100DB00081F8280081F8290081F82A0081F82B6049
:100DC00081F82C50302081F82D3081F82F20F0BC94
:100DD0007047154606E71446D6E71546A5E71546BB
:100DE0007BE7154650E7154625E700BFCA7852094C
:100DF00070B442610346087942EAC0025A614879F8
:100E000042EAC02058618A79D20402F4F002024317
:100E10005A61CD798E792C0104F4FE6454EA1614DB
:100E200003F10C0005D0A4F5607442EAC4525A6183
:100E3000CD7925F07F0542EA05625A61CA7A5209E6
:100E40009A610C7B42EAC4029A614C7B42EAC42458
:100E50009C618A7BD20402F4F00222439A61CD7B2A
:100E60008E7B2C0104F4FE6454EA161405D0A4F51C
:100E7000607442EAC4529A61CD7B25F07F0542EA54
:100E800005629A61CA7C5209DA610C7D42EAC402A9
:100E9000DA614C7D42EAC424DC618A7DD20402F42A
:100EA000F0022243DA61CD7D8E7D2C0104F4FE64D4
:100EB00054EA161405D0A4F5607442EAC452DA610B
:100EC000CD7D25F07F0542EA0562DA61CA7E5209CE
:100ED0005A620C7F42EAC4025A624C7F42EAC4243E
:100EE0005C628A7FD20402F4F00222435A62CD7F10
:100EF0008E7F2C0104F4FE6454EA161405D0A4F588
:100F0000607442EAC4525A62CD7F25F07F0542EAFE
:100F100005625A6291F8232052099A6291F824409E
:100F200042EAC4029A6291F8254042EAC4249C62D3
:100F300091F82620D20402F4F00222439A6291F83A
:100F4000275091F826602C0104F4FE6454EA16142C
:100F500006D0A4F5607442EAC4529A6291F8275010
:100F600025F07F0542EA05629A6291F82B2052092A
:100F7000DA6291F82C4042EAC402DA6291F82D401C
:100F800042EAC424DC6291F82E20D20402F4F0027A
:100F90002243DA6291F82F5091F82E602C0104F46C
:100FA000FE6454EA161406D0A4F5607442EAC452F2
:100FB000DA6291F82F5025F07F0542EA0562DA6285
:100FC00070BC1B6B184700BFCB785B0930B48360E3
:100FD0000A7943EAC20383604A7943EAC222826003
:100FE0008B79DB0403F4F00313438360CC798D79B0
:100FF000220102F4FE6252EA151205D0A2F56072D7
:1010000043EAC2538360CC7924F07F0443EA04634B
:101010008360CB7A5B09C3600A7B43EAC203C36087
:101020004A7B43EAC222C2608B7BDB0403F4F003F9
:101030001343C360CC7B8D7B220102F4FE6252EA33
:10104000151205D0A2F5607243EAC253C360CC7B8F
:1010500024F07F0443EA0463C360CB7C5B09036133
:101060000A7D43EAC20303614A7D43EAC222026168
:101070008B7DDB0403F4F00313430361CC7D8D7D92
:10108000220102F4FE6252EA151205D0A2F5607246
:1010900043EAC2530361CC7D24F07F0443EA046336
:1010A0000361CB7E5B0983610A7F43EAC2038361EC
:1010B0004A7F43EAC22282618B7FDB0403F4F003A0
:1010C00013438361CC7F8D7F220102F4FE6252EADA
:1010D000151205D0A2F5607243EAC2538361CC7F3A
:1010E00024F07F0443EA0463836191F823305B09B1
:1010F000C36191F8242043EAC203C36191F825201B
:1011000043EAC222C26191F82630DB0403F4F00303
:101110001343C36191F8274091F82650220102F44D
:10112000FE6252EA151206D0A2F5607243EAC2537B
:10113000C36191F8274024F07F0443EA0463C3614C
:1011400091F82B305B09036291F82C2043EAC2032B
:10115000036291F82D2043EAC222026291F82E30F8
:10116000DB0403F4F0031343036291F82F4091F87A
:101170002E50220102F4FE6252EA151206D0A2F5A8
:10118000607243EAC253036291F82F4024F07F0457
:1011900043EA0463036230BC30207047CB785B09BC
:1011A00030B443600A7943EAC20343604A7943EAB0
:1011B000C22242608B79DB0403F4F00313434360E3
:1011C000CC798D79220102F4FE6252EA151205D023
:1011D000A2F5607243EAC2534360CC7924F07F04E5
:1011E00043EA04634360CB7A5B0983600A7B43EA8A
:1011F000C20383604A7B43EAC22282608B7BDB04AA
:1012000003F4F00313438360CC7B8D7B220102F453
:10121000FE6252EA151205D0A2F5607243EAC2538B
:101220008360CC7B24F07F0443EA04638360CB7C3F
:101230005B09C3600A7D43EAC203C3604A7D43EA97
:10124000C222C2608B7DDB0403F4F0031343C3604E
:10125000CC7D8D7D220102F4FE6252EA151205D08A
:10126000A2F5607243EAC253C360CC7D24F07F04D0
:1012700043EA0463C36030BC18207047D0ED017AA4
:1012800017EE903AC3F3C752F0B4002A71D002F5BA
:10129000607215016DB2C2F30712F5EEC07AC3F3A6
:1012A000C344F1EE10FA45EA04054FEA43174FF044
:1012B00000044FEAE30648BF62F07F02DB124B7185
:1012C000CA718D710C704C708C70CF700E71D0ED36
:1012D000027A17EE903AC3F3C752002A4DD002F5B6
:1012E000607215016DB2C2F30712F5EEC07AC3F356
:1012F000C344F1EE10FA45EA04054FEA43174FF0F4
:1013000000044FEAE30648BF62F07F02DB124B7332
:10131000CA738D730C724C728C72CF720E73D0EDD7
:10132000037A17EE903AC3F3C75222B302F5607204
:10133000140164B2C2F30712F5EEC07AC3F3C340DE
:10134000F1EE10FA44EA00044FEA43164FF00000B1
:101350004FEAE30548BF62F07F02DB128C75087428
:1013600048748874CE740D7518204B75CA75F0BC1E
:101370007047154691E71446DEE71546B5E700BF0E
:10138000F0B585B02F4B026801932F4903910323D9
:101390008DF8083014682D4A94424BD1002438222D
:1013A000054680F8233280F8242280F8254280F810
:1013B000264280F8274200F50A7002F081FAFF27E2
:1013C0003D20C223FE26072185F81E0285F8203223
:1013D00085F81F4285F82242224685F81C7285F85E
:1013E0001D6285F8211205F2212305F25F2001E03C
:1013F00013F8011F83420A44FAD1D243144E85F8F0
:10140000602205F21B2405F5187703E003F0DCFCED
:10141000BC420BD06A6814F8011F13681B68B34202
:101420000846F3D010469847BC42F3D14FF0FF3046
:1014300005B0F0BD01AA0721A0474FF0FF3005B06D
:10144000F0BD00BF809D0000AC9F0000551400005F
:10145000D50900002DE9F041632984B003DD90F83F
:10146000F874002F53D0136805460F4610461B68CA
:1014700005F223219847C2B2C0F30721561885F818
:101480001E2247F30722F643FF234FF0FE0EFCB265
:1014900085F82222421C85F8206285F81F1285F803
:1014A0001C3285F81DE285F821420DDB00F2222175
:1014B000294405F22123002201E013F8014F99424B
:1014C0002244FAD1D343DBB22A1800F10807B7F55A
:1014D000007F82F823321EDC002F05F5077616DD2B
:1014E0000730DFF8F480064405F21B2403E003F024
:1014F0006BFCB4420BD06A6814F8011F13681B68B8
:1015000043450846F3D010469847B442F3D13846D5
:1015100004B0BDE8F0812D4A2D492B6801920320CB
:101520008DF8080003911B682A4A934246D1002493
:10153000382285F8230285F8242285F8254285F88B
:10154000264285F8274205F50A7002F0B9F9FF270F
:101550003D20C223FE26072185F81E0285F8203291
:1015600085F81F4285F82242224685F81C7285F8CC
:101570001D6285F8211205F2212305F25F2001E0AA
:1015800013F8011F98420A44FAD1D243DFF8488089
:1015900085F8602205F21B2405F5187603E003F0B8
:1015A00013FCB4420ED06A6814F8011F13681B685C
:1015B00043450846F3D010469847F2E7284601AA6B
:1015C000072198474FF0FF30A2E700BF809D000041
:1015D000AC9F000055140000D509000010B52B4C3D
:1015E000002304F27C421146C4F8E434C4F8E83421
:1015F000C4F8F034C4F8EC3402E00133192B0AD0FB
:1016000051F8040F0028F8D103F59070204944F8F0
:10161000201064334B60002302E00133192B0AD001
:1016200052F8041F0029F8D103F59071194A44F8C3
:101630002120643353600121142002F059FC012160
:10164000084602F055FC0121152002F051FC012151
:10165000082002F04DFC0121062002F049FC012186
:10166000052002F045FC0121112002F041FC01217E
:101670000E2002F03DFC0121112002F033FC01217B
:101680000E20BDE8104002F02DBC00BF8411FF1FEA
:101690003C17FF1FE416FF1F2DE9F04FDFF878B36A
:1016A000D14CDBF8003093B042F6F8220793DDF816
:1016B0001CA0D4F80035C3EB0A03934284BF002377
:1016C00084F8F834D4F8E434C74A33B1D2F8043596
:1016D0009A4584BF0023C2F8E434C44EC24DA269C7
:1016E0003AB1DBF800300B930B9BCAEB03039A4231
:1016F00027D3606803685B69B34240F0938103F0CD
:1017000079FA0028C0F29281D4F8F434D4F8E424B1
:10171000B54F0344072AC4F8F43400F05181002A7D
:1017200040F01281FF2800F0DF81DBF800300A93DF
:101730000A9B41F28831CAEB03038B42CFD987F869
:10174000F824DBF80030AA4A05931168059B40F69F
:10175000B7325B1A934205D9A649A74B3220002223
:1017600008601A60A54BDFEDA66AD3ED007AA54E9E
:10177000DBF80030069386EEA77A069F3368FB1AE3
:1017800007EE903AF8EE677AF4EEC77AF1EE10FAC7
:1017900040F32182DFF85C92D9F800000A2800F0BB
:1017A000F382142800F072841E2800F0A0832828F9
:1017B00040F03582DFF84082D8F80010002940F070
:1017C0000982142002F08EFBDFF850B2DFF850A23D
:1017D000854D0121084602F085FBDBED007AF5EE30
:1017E000C07AF1EE10FAD8BFF1EE677AFDEEE77A33
:1017F000152017EE901A02F0F1F90021082002F0EE
:1018000071FB0121062002F06DFBDAED007AF5EEA6
:10181000C07AF1EE10FAD8BFF1EE677AFDEEE77A02
:10182000052017EE901A02F0D9F90121112002F0DB
:1018300059FB01210E2002F055FBDBED007A9AEDF9
:10184000007A71497148F5EEC07AF1EE10FAB5EE02
:10185000C07AD8BFF1EE677AF1EE10FAD8BFB1EED8
:10186000477AFDEEE77ABDEEC77A17EE902A17EEBB
:10187000103A04F059FB0123644884F8233204F041
:101880007FFB010A4FEA104E030E8146024684F8A0
:10189000251205F50A705D4984F826E284F827329E
:1018A00084F8249202F00CF809F10500C1B2C0F3EB
:1018B000072E01EB0E02D243FF2384F81E124FF0D5
:1018C000FE0C84F8202207210022B0F1FF3F84F8AB
:1018D0001FE284F81C3284F81DC284F8211284F8B7
:1018E00022220CDB09F2272EAE4405F2212301E06F
:1018F00013F8011F9E450A44FAD1D343DBB22118E5
:1019000000F10802B2F5007F81F82332364800F377
:101910005C81002A40F35B8109F50A7900EB090A32
:101920003B4D00F21B2904E003F04EFACA4500F0DB
:101930004E81626819F8011F13681B68AB420846A4
:10194000F2D010469847F1E7012A00F0D580022A2C
:1019500000F02681032A00F02E81042A00F03E8147
:10196000052A00F04B81062A00F0F081082A7FF456
:10197000B6AE284F1F4000239F42C4F8E434C0F2A3
:101980002F84FF2F7FF4ABAED4F8EC34DFF858800F
:10199000002B00F0C3850A2B00F05984062B00F0C1
:1019A000A3840B2B00F04E84BC3355F82300002891
:1019B0003FF495AE036808F11C011B6898478EE65A
:1019C000D5F8F024D5F8E834A918013B013208779E
:1019D000C5F8F024C5F8E834002B7FF480AE082366
:1019E000C4F8E4347BE600BF8411FF1FBD0700008C
:1019F000B816FF1F3417FF1FE016FF1FF806FF1F62
:101A000000007A447C17FF1F1CA000000017FF1F76
:101A1000D5090000FF0000808417FF1F3817FF1F43
:101A20008017FF1F98470028BFF66EAE94F8F83471
:101A3000CE48002B3FF485AED0F8FC3440F6C412FB
:101A4000C3EB0A0393427FF67CAEFF23FE21002204
:101A500080F81C3280F81D12F72308250A2180F82F
:101A6000203280F8232280F8242280F8252280F872
:101A7000262280F8272280F8282280F8292280F860
:101A80002A2280F81F2280F8222280F81E5280F835
:101A9000211200F2212300F22A2001E013F8011F95
:101AA00098420A44FAD1B24EB24DD24384F82B2266
:101AB00006F10F07FF2005E003F086F9BE420BD0C8
:101AC00016F8010F626813681B68AB420146F3D039
:101AD00010469847BE42F3D1DBF800300F930F9BBE
:101AE000C4F8FCA4E3602CE601220AF11403C5F853
:101AF000E424C5F80435F2E5FE287BD095F8F824F7
:101B00000023C5F8E434002A7FF4E9ADFF23FE2169
:101B1000082085F81C3285F81D12F7230A2185F864
:101B2000203285F8232207F2212385F8242285F824
:101B3000252285F8262285F8272285F8282285F88F
:101B4000292285F82A2285F81F2285F8222285F885
:101B50001E0285F8211207F22A2701E013F8011F5F
:101B6000BB420A44FAD1DFF80882824FD24384F89C
:101B70002B2208F10F09FF2101E018F8011F62680C
:101B800013681B68BB42084640F01C8503F01CF933
:101B9000C145F2D1DBF800300993099BE3609EE573
:101BA00000220323C5F8E804C5F8F404C5F8F024BE
:101BB000C5F8E43493E5D5F8E83403EB00200423BA
:101BC000C5F8E804C5F8E43489E5FFF7D9FB01233B
:101BD000C8F80030376013B0BDE8F08F664A1A408D
:101BE000002AC0F27F81FF2A0CBF05230023C4F81E
:101BF000E43474E50223C5F8E43470E50623C5F83F
:101C0000EC04C5F8F404C5F8E43468E5FFF7B8FB64
:101C1000D9F8000001232828C8F80030DAD032288B
:101C2000D8D1DFF86081D8F800A0BAF1000FD1D187
:101C30005146142002F056F95146012002F052F9A3
:101C40005146152001F0CAFF5146082002F04AF91A
:101C50005146062002F046F95146052001F0BEFF2C
:101C60000121112002F03EF901210E2002F03AF983
:101C70005246424942483D4D534604F055F901232E
:101C80003F4884F8233204F07BF981464FEA19413A
:101C9000000A4FEA19634A4684F8250284F826129E
:101CA00005F50A70364984F8273284F8249201F049
:101CB00007FE09F10500C3B2C0F307215A18D24349
:101CC00084F82022FE2284F81E3284F81F12FF239B
:101CD000072184F81D22421C84F822A284F81C32B9
:101CE00084F821120DDB09F2272E5246AE4405F28C
:101CF000212301E013F8011F9E450A44FAD1D34382
:101D0000DBB2211800F10802B2F5007F81F823321E
:101D100016483FF75AAF002A7FF759AF09F50A79FD
:101D200000EB090A134D00F21B2904E003F04CF804
:101D3000CA453FF44CAF626819F8011F13681B686D
:101D4000AB420846F2D010469847F1E7D5F8EC349C
:101D5000D5F8E82403EB00230721C5F8EC34C5F8D7
:101D6000E414002A3FF43BAEB9E400BF8411FF1F26
:101D7000A013FF1FD5090000FF00008030A0000065
:101D80000017FF1FE016FF1FDFF8F882D8F800B039
:101D9000BBF1000F7FF41EAFB44BDFF8ECA2009351
:101DA0000121142002F09EF85946012002F09AF811
:101DB000DAED007AAE4DFDEEE77A152017EE901AB7
:101DC00001F00CFF0121082002F08CF85946062092
:101DD00002F088F8009BD3ED007AFDEEE77A05204B
:101DE00017EE901A01F0FAFE5946112002F07AF827
:101DF00059460E2002F076F8009BDAED007A93ED5A
:101E0000007A9C499C48BDEEC77AFDEEE77A17EE52
:101E1000103A17EE902A04F087F80123964884F8C8
:101E2000233204F0ADF882464FEA1A41000A4FEA25
:101E30001A63524684F8250284F8261205F50A70C2
:101E40008D4984F8273284F824A201F039FD0AF183
:101E50000501CBB2C1F307201A18D24384F820221F
:101E6000FE2284F81E3284F81F02FF23072084F824
:101E70001D224A1C84F822B284F81C3284F8210204
:101E80000DDB0AF2272E5A46AE4405F2212301E06B
:101E900013F8010F73450244FAD1D343DBB2621841
:101EA0000831B1F5007F82F82332714800F3A78131
:101EB000002940F3A6810AF50A7A704D824400F2A7
:101EC0001B2B04E002F080FFD34500F09A8162688A
:101ED0001BF8011F13681B68AB420846F2D010467E
:101EE0009847F1E7013A62F0FF0201327BE6DFF842
:101EF0009481D8F80050002D7FF46CAEDFF888B1E3
:101F0000DBED007AF5EEC07AF1EE10FA40F38D8148
:101F10000121142001F0E6FF2946012001F0E2FF33
:101F2000DBED007ADFF844A1FDEEE77A152017EE2D
:101F3000901A01F053FEDAED007AF5EEC07AF1EE78
:101F400010FA40F365810121082001F0CBFF002148
:101F5000062001F0C7FFDAED007A454DFDEEE77A85
:101F6000052017EE901A01F039FE0021112001F032
:101F7000B9FF00210E2001F0B5FF9AED007ADBEDEC
:101F8000007A3F493C48BDEEC77AFDEEE77A17EE8E
:101F9000103A17EE902A03F0C7FF0123364884F861
:101FA000233203F0EDFF010A4FEA104E030E824682
:101FB000024684F8251205F50A702F4984F826E2B6
:101FC00084F8273284F824A201F07AFC0AF1050093
:101FD000C1B2C0F3072E01EB0E02D243FF2384F8F7
:101FE0001E124FF0FE0C84F8202207210022B0F1CF
:101FF000FF3F84F81FE284F81C3284F81DC284F885
:10200000211284F822220CDB0AF2272EAE4405F2BC
:10201000212301E013F8011F9E450A44FAD1D3435E
:10202000DBB2211800F10802B2F5007F81F82332FB
:102030000F483FF7EBAD002A7FF7EAAD0AF50A7AC1
:1020400000EB0A0B0D4D00F21B2A04E002F0BCFE6F
:10205000D3453FF4DDAD62681AF8011F13681B68B1
:10206000AB420846F2D010469847F1E78017FF1FB1
:102070008411FF1FE89F00000017FF1FD509000013
:1020800008A00000E016FF1F3817FF1FDFF84C8282
:10209000D8F800B0BBF1000F7FF49CAD884BDFF89F
:1020A00040A20093012101F01DFF5946012001F0DB
:1020B00019FFDAED007A834DFDEEE77A152017EE71
:1020C000901A01F08BFD0121082001F00BFF594609
:1020D000062001F007FF009BD3ED007AFDEEE77AC2
:1020E000052017EE901A01F079FD5946112001F0F4
:1020F000F9FE59460E2001F0F5FE009BDAED007A5C
:1021000093ED007A70497148BDEEC77AFDEEE77A2B
:1021100017EE103A17EE902A03F006FF01236B48E2
:1021200084F8233203F02CFF82464FEA1A41000A5A
:102130004FEA1A63524684F8250284F8261205F500
:102140000A70624984F8273284F824A201F0B8FBAF
:102150000AF10501CBB2C1F307201A18D24384F863
:102160002022FE2284F81E3284F81F02FF2307205B
:1021700084F81D224A1C84F822B284F81C3284F8A8
:1021800021020DDB0AF2272E5A46AE4405F2212326
:1021900001E013F8010F73450244FAD1D343DBB2D7
:1021A00062180831B1F5007F82F8233245481DDC02
:1021B00000291DDD0AF50A7A454D824400F21B2BE9
:1021C00003E002F001FEDA4512D062681BF8011F3D
:1021D00013681B68AB420846F3D010469847F2E7F5
:1021E000013F67F0FF070137FFF7CBBBFFF7C8F8E8
:1021F0000123D9F80000C8F80030FFF7D5BAFFF77F
:10220000BFF80123D9F80000C8F80030FFF7C9BAB9
:102210007FF5A3AE0021082001F064FE0121062015
:1022200001F060FEDAED007A97E67FF57BAE294695
:10223000142001F057FE0121084601F053FEDBEDAA
:10224000007A6FE6002385F8F834FFF748BADBF828
:1022500000300C930C9BEA68DBF800100E911D49CE
:102260002F6ADFF880E0DDF838C09B1AA1FB03106D
:1022700080094FF47A71BE44174FEA6901FB1033AD
:1022800007FB03EE134BA3FB0C394FEA9919013AF4
:1022900001FB19C1024407FB11E3C9EB020208F17B
:1022A000140108F110006B612A6101F0F5FADBF806
:1022B00000300D930D9BC5F80035FFF710BA00BF35
:1022C0008017FF1F8411FF1FF89F00000017FF1FDA
:1022D000D5090000D34D621040420F00E016FF1FE9
:1022E0003817FF1F00CA9A3BEF69D5F810359F4297
:1022F00006D9B900D5F8180503F01EFCC5F8180575
:10230000C4F81075002F00F0F880B04F4FF00408AB
:102310004FF0000997F8221097F8213097F8202005
:1023200097F823E0D4F81805090441EA032313437E
:1023300043EA0E6300EB89000422A549C4F8143572
:1023400001F0BEFAD4F8103509F101094B454246B7
:1023500007F1040708F10408DCD802F1090302F1CF
:10236000080902F10B01501D02F1060E02F1070CE3
:102370000193CDF8088002F10A034F4600910C3218
:10238000A64402999EF81CE02044214490F81C8049
:10239000097FA4444FEA0E4E4EEA082E9CF81C001A
:1023A0004EEA010ED4F81C154EEA006888450BD998
:1023B0004FEA8801D5F824050392029303F0BCFB91
:1023C000039A029BC5F82405C4F81C85B8F1000FD8
:1023D00000F0918005EB07084FF00009009798F88E
:1023E0001E1098F81D3098F81C2098F81FE0D4F8BB
:1023F0002405090441EA03231343764943EA0E63A3
:102400000B6000EB8900042201F05AFA009AD4F81C
:102410001C3509F1010911464B4502F1040208F18E
:1024200004080092DBD84B1D9146CA1D019300920F
:102430008B1D01F10807019A22442344107F009A62
:10244000197FD4F828352244A1449646090499F806
:102450001C209EF81C8041EA00210A4342EA0868D9
:10246000984507D94FEA8801D5F8300503F064FB99
:10247000C5F83005C4F82885B8F1000F36D04FF004
:102480000009C84607F11C01002321449E4611F8AB
:10249000012B9A400833202B4EEA020EF7D1381D4B
:1024A0008644704509D207F11F03234402460132D6
:1024B000597803F8011B7245F9D304EB0E02464923
:1024C00082F81B80431ED4F83005A1F5A2621344A4
:1024D00000EB89000422C4F82C35774601F0F0F9AE
:1024E000D4F8283509F101094B45CBD8012384F8EC
:1024F0000835FFF7F4B817469DE709210B234FF085
:1025000008090191042100934F460C220A234FF041
:10251000070C4FF0060E0520029131E7994608F2AC
:1025200023212E4B0F930FA8CDF84090CDF8449067
:10253000FDF79CFFC1B2C0F307228B18DB4388F87C
:102540001E12FE2588F820320A21431C88F81C72CE
:1025500088F8229288F81F2288F81D5288F82112E4
:10256000C0F2DA8200F222254B46454408F22122CD
:1025700001E012F8011FAA420B44FAD1DB43DBB29F
:10258000221800F10801B1F5007F82F823320F4FC5
:1025900000F37782002925DD00F223203E18104D3C
:1025A00007F21B2703E002F00FFCB7421AD0626863
:1025B00017F8011F13681B68AB420846F3D010469A
:1025C0009847F2E710469847FFF7E2BA8411FF1FD9
:1025D0009816FF1FA416FF1FB016FF1F509D000086
:1025E000D5090000DBF800300893874BCDF804A034
:1025F0001A46089BE360134664330093A2F5836593
:1026000092465AF8043F002B00F0188158689A68E7
:1026100001680292D3F800908B689847DAF800308E
:10262000804658680368DB689847DAF80030029AF9
:102630001E69632E074604DD94F8F834002B00F081
:10264000FD80C2F30723484684F8232284F824320D
:1026500003F096FC0346020A000C4FEA136E49464B
:1026600084F8262284F827021A46684884F825321E
:10267000029384F828E201F023F9404603F080FC3D
:10268000029B024603F2292020440633002122FA4D
:1026900001FE0831202900F801EBF8D15C48043331
:1026A0004146184402EB030801F00AF9384603F0EA
:1026B00067FC08F2232281462244002329FA03F111
:1026C0000833202B02F8011BF8D1514B08F1040804
:1026D000394603EB08004A4601F0F2F809EB08001E
:1026E000071D5FFA87FCC7F3072E04EB00080CEB0D
:1026F0000E010022C943022388F8243288F82322DD
:1027000088F8252288F8262284F82012F1B246F3B0
:102710000726FF234FF0FE0884F822627E1C84F80F
:102720001EC284F81FE284F81C3284F81D8284F8EB
:1027300021120BDB00F22626364B2E4401E013F863
:10274000011FB3420A44FAD1D343DBB2E21908377E
:10275000B7F5007F82F8233216DC002F6EDD00F221
:1027600027202D4E2F1803E002F02EFBB74265D034
:1027700062682A48136816F8011F1B6883420846DE
:10278000F2D010469847F1E7254F264E0FCF0FC6DF
:102790000FCF0FC60FCF0FC697E8030000234FF0EF
:1027A000030E3827FF2285F823E285F824724FF0C4
:1027B000FE0E3D2785F8253285F8263285F827322A
:1027C00086E80300C22085F81C220722A6F1370103
:1027D00085F81F3285F82232073685F81DE285F824
:1027E0001E7285F8200285F8212201E011F8012FE0
:1027F0008E421344FAD10C4EDB4384F8603206F16A
:102800004407FF2114E000BF9C15FF1FAD13FF1FFD
:10281000A713FF1FA513FF1F9F13FF1FD50900005C
:10282000AC9F0000AC13FF1FA013FF1F16F8011F81
:10283000606803681B689847BE42F7D1009B9A45C1
:102840007FF4DFAEB54BDDF800A0A3F59C655AF828
:10285000040F002800F0068190E80C0000939268B5
:10286000D0F8089090478046DAF800000268D268F5
:1028700090470746DAF800000268526890476328DC
:102880000646009B04DD94F8F824002A00F0EA8054
:10289000C3F30722484684F8233284F8242203F045
:1028A0006FFB0346020A000C4FEA136E494684F898
:1028B000262284F827021A46994884F82532009384
:1028C00084F828E200F0FCFF404603F059FB009B2F
:1028D000024603F2292020440633002122FA01FE99
:1028E0000831202900F801EBF8D18E480433414625
:1028F000184402EB030800F0E3FF384603F040FB06
:1029000008F2232281462244002329FA03F10833E6
:10291000202B02F8011BF8D1824B08F1040839463C
:1029200003EB08004A4600F0CBFF09EB0800071D47
:102930005FFA87FCC7F3072E04EB00080CEB0E01CF
:102940000022C943022388F8243288F8232288F819
:10295000252288F8262284F82012F1B246F30726B1
:10296000FF234FF0FE0884F822627E1C84F81EC20A
:1029700084F81FE284F81C3284F81D8284F8211246
:102980000BDB00F22626684B2E4401E013F8011FF2
:10299000B3420A44FAD1D343DBB2E2190837B7F5A0
:1029A000007F82F8233216DC002F5BDD00F2272047
:1029B0005E4E2F1803E002F007FABE4252D0626862
:1029C0005B48136816F8011F1B6883420846F2D063
:1029D00010469847F1E7574F574E0FCF0FC60FCF0E
:1029E0000FC60FCF0FC697E8030000234FF0030E6A
:1029F0003827FF2285F823E285F824724FF0FE0E77
:102A00003D2785F8253285F8263285F8273286E875
:102A10000300C22085F81C220722A6F1370185F8A1
:102A20001F3285F82232073685F81DE285F81E72BE
:102A300085F8200285F8212201E011F8012FB1422A
:102A40001344FAD13D4EDB4384F8603206F144076B
:102A5000FF2101E016F8011F606803681B689847B2
:102A6000B742F7D12D4B9A457FF4F1AEDDF804A0C3
:102A7000C4F8FCA40123C4F800A584F8F834FEF7D8
:102A800060BE2C4E0FCE07F50A750FC50FCE0FC5D1
:102A90000FCE0FC596E8030000230326382287F8DF
:102AA000236287F8242287F8253287F8263287F8B0
:102AB00027324FF0FF0C85E803004FF0FE0E3D2655
:102AC0004FF0C208072187F81F3287F822321A46D2
:102AD000A5F13700EB1D87F81CC287F81DE287F8C7
:102AE0001E6287F8208287F8211201E010F8011F8A
:102AF00083420A44FAD1114DD34384F8603205F180
:102B00004406FF21606803681B689847B5423FF49C
:102B100069AD15F8011FF5E73B4631E56416FF1F67
:102B2000AD13FF1FA713FF1FA513FF1F9F13FF1F49
:102B3000D5090000AC9F0000AC13FF1FA013FF1FBE
:102B40002DE9F04F8DB0D04AD04B069200220446BA
:102B500000F5836600F27C45ADF81C200B920893CB
:102B600009930A9356F8043F002B00F0D28058686E
:102B70001F6801689A6808978B68ADF81C20984711
:102B80003368099058680368DB68984723683168A0
:102B90000A904FF400721B68D1F810800B92BC4A67
:102BA0009342824640F0B581B8F1630F04DD94F89A
:102BB000F834002B00F0AD80BDF81C30DDF820901B
:102BC00084F823321B0A84F82432484603F0D8F9EB
:102BD00007463B0E3A0C000A494684F8283284F82E
:102BE000257284F8260284F8272204F229203A4626
:102BF00000F066FEDDF824B0584603F0C1F904F297
:102C00002329791D024606374944002322FA03F09E
:102C10000833202B01F8010FF8D10437594609EB8E
:102C20000700174400F04CFE504603F0A9F909EBE9
:102C30000702834600232BFA03F10833202B02F806
:102C4000011BF8D10437514609EB07005A4600F042
:102C500037FE0BEB070E0EF104075FFA87FAC7F396
:102C6000072C09EB0E010AEB0C000022C0434FF0C9
:102C7000020B09F80E20FF238A70CA7081F801B098
:102C80004FF0FE095FFA88F184F8200248F3072824
:102C9000781C84F81EA284F81FC284F81C3284F8C1
:102CA0001D9284F8211284F82282C0F2EB810EF288
:102CB0002620204404F2212301E013F8011F98424A
:102CC0000A44FAD1D243D2B2E11907F10803B3F5AD
:102CD000007F81F8232200F32481002B04F507777D
:102CE00017DD0EF10B0EDFF8AC91774404F21B28D0
:102CF00003E002F069F847450BD0626818F8011F3D
:102D000013681B684B450846F3D010469847474563
:102D1000F3D1B5427FF426AFDFF8749104F59C68D7
:102D200055F8040F002800F0E380816803684268CA
:102D30000891ADF81C209B6898472B6809901A6889
:102D40001846D36898472B6821680A901A680E685D
:102D500052684FF4007118460B9190474E45074654
:102D600040F0CF80632804DD94F8F834002B00F0A5
:102D7000BF80BDF81C30089E84F823321B0A84F8FB
:102D80002432304603F0FCF882464FEA1A634FEAD9
:102D90001A42000A314684F8283284F825A284F8C1
:102DA000260284F8272204F22920524600F088FDEA
:102DB00009990191084603F0E3F804F223260AF189
:102DC0000502019983460AF1060A324400232BFAD0
:102DD00003F00833202B02F8010FF8D10AF1040A9E
:102DE0005A4606EB0A0000F06BFD0A99019108466D
:102DF00003F0C6F8D3440199824606EB0B02002388
:102E00002AFA03F00833202B02F8010BF8D10BF15A
:102E1000040B06EB0B00524600F052FD0AEB0B02CE
:102E20000B9BB354111D16445FFA81FCC1F3072EAE
:102E30004FEA132B4FEA134A0CEB0E001B0E86F8D9
:102E400001B086F802A0F370C043FEB24FF0FF0B52
:102E50004FF0FE0A47F307274B1C84F8200284F842
:102E60001EC284F81FE284F81CB284F81DA284F804
:102E7000216284F8227218DB02F22627274404F22A
:102E8000212300200AE000BF689D0000E49F0000AD
:102E900055140000D509000013F8016FBB423044FF
:102EA000FAD16FEA000B5FFA8BFB63180831B1F5BA
:102EB000007F83F823B200F38E80002904F50777A2
:102EC00016DD0B32DFF8E0A1174404F21B2603E005
:102ED00001F07AFFBE420BD0626816F8011F13683A
:102EE0001B6853450846F3D010469847BE42F3D1BD
:102EF000A8457FF415AF012384F8F8340DB0BDE880
:102F0000F08F014606AA2046B047A8457FF408AFD7
:102F1000F1E7414606AA20469847B5427FF422AE23
:102F2000FAE65E4A039203215D4A236805928DF812
:102F300010101B685B4A934240F0AB800027382298
:102F400084F8231284F82422554984F8257284F8E1
:102F5000267284F8277204F50A7000F0B1FC3D2057
:102F6000C223FF2184F81E0284F8203204F25F207D
:102F700004F221234FF0FE0E3A4684F81C129842C8
:102F80004FF0070184F81F7284F8227284F81DE262
:102F900084F821120A4404D013F8011F98420A440D
:102FA000FAD1D243DFF8009184F8602204F21B27A3
:102FB00004F5187804E001F007FF47453FF4A9AE97
:102FC000626817F8011F13681B684B450846F2D06A
:102FD00010469847F1E7314A039203212368304AAB
:102FE00005928DF810101B684B454DD100263822F4
:102FF00084F8231284F82422294984F8256284F86D
:10300000266284F8276204F50A7000F059FC3D201E
:10301000C223FF2184F81E0284F8203204F25F20CC
:1030200004F22123FE27324684F81C1298424FF006
:10303000070184F81F6284F8226284F81D7284F804
:1030400021120A4404D013F8011F98420A44FAD10D
:10305000D243DFF854A084F8602204F21B2604F562
:10306000187704E001F0B0FEBE423FF441AF626861
:1030700016F8011F13681B6853450846F2D0104626
:103080009847F1E71A461FE603AA0721204698470A
:103090002EE703AA0721204698473AE6809D0000C4
:1030A000AC9F000055140000D50900002DE9F04F39
:1030B000C64E91B033680493049DD0F8003542F6B3
:1030C000F822EB1A934284BF002380F8F834D0F83A
:1030D000E434044633B1D0F80435AB423CBF00239E
:1030E000C0F8E434BA4FA26932B133680593059B46
:1030F0005B1B9A42C0F02481606803685B69BB4235
:1031000066D101F077FD002865DBD4F8F434D4F8FB
:10311000E4240344072AC4F8F43447D082B9FF28D2
:1031200069D033680693069B41F288315B1B8B4262
:10313000D9D984F8F8246FF0010011B0BDE8F08F00
:10314000012A60D0022A00F0BF80032A00F0C78065
:10315000042A00F0CE80052A00F0DB80062A00F069
:10316000E080082ABFD19B4A1A4000239A42C4F843
:10317000E434C0F25E81FF2AB5D1D4F8EC34002BE0
:1031800000F0C2820A2B00F07082062B00F05A81F8
:103190000B2B00F05381BC3354F823000028A2D03D
:1031A000036804F11C011B6898479CE7D4F8F034CD
:1031B000E2180133C4F8F0341077D4F8E834013B56
:1031C000C4F8E834002B8ED10823C4F8E4348AE72D
:1031D0009847002899DA94F8F8040028ADD0D4F87C
:1031E000FC3440F6C412EB1A934200F2AE80002089
:1031F00011B0BDE8F08F012205F11403C4F8E424F6
:10320000C4F804356FE7FE287FD094F8F824002333
:10321000C4F8E434002A7FF466AF6F4923680D9147
:103220001B686E490E928B420F9240F0FD80FF2189
:103230000820F7234FF0FE0E84F81C120A2184F8B0
:103240001E0284F8203284F8232284F8242284F891
:10325000252284F8262284F8272284F8282284F85C
:10326000292284F82A2284F81F2284F8222284F852
:103270001DE284F8211204F2212304F22A2001E045
:1032800013F8011F98420A44FAD1D243DFF8509153
:1032900084F82B2204F21B2804F22B2A03E001F00D
:1032A00093FDC2450BD0626818F8011F13681B68B4
:1032B0004B450846F3D010469847C245F3D13368D2
:1032C0000793079BE3600EE700220323C4F8E8049A
:1032D000C4F8F404C4F8F024C4F8E43403E7D4F8E0
:1032E000E83403EB00200423C4F8E804C4F8E43411
:1032F000F9E6384A1A40002AC0F28380FF2A0CBF40
:1033000005230023C4F8E434EDE60223C4F8E434D2
:10331000E9E60623C4F8EC04C4F8F404C4F8E43481
:10332000E1E6D4F8EC34D4F8E82403EB00230721D9
:10333000C4F8EC34C4F8E414002A3FF445AFD2E6F4
:103340006FF0010011B0BDE8F08F234A23680D92A1
:103350001B68224900228B420E920F9256D1FF2108
:103360000820F723FE2784F81C120A2184F81E0285
:1033700084F8203284F8232284F8242284F8252239
:1033800084F8262284F8272284F8282284F8292227
:1033900084F82A2284F81F2284F8222284F81D72DD
:1033A00084F8211204F2212304F22A2001E013F808
:1033B000011F98420A44FAD1D243DFF8248084F8EE
:1033C0002B2204F21B2704F22B290FE08417FF1F86
:1033D000BD070000FF000080509D00005514000054
:1033E000D509000001F0F0FCB94513D0626817F868
:1033F000011F13681B6843450846F3D010469847E1
:10340000F2E7013A62F0FF02013277E70DAA0A21E2
:103410002046984733680993099BC4F8FC54002060
:10342000E36011B0BDE8F08F0DAA0A21204698474D
:1034300045E7013A62F0FF0201329CE6002384F87E
:10344000F83450E6227F637F94F81E90E17F42EAD1
:10345000032343EA0943D4F8102543EA016991455F
:1034600004F11C0807D94FEA8901D4F8180502F0C5
:1034700063FBC4F81805C4F81095B9F1000F00F00B
:103480005E8104F214530093C1464FF0040A4FF0DA
:10349000000B99F8063099F8050099F8042099F87E
:1034A00007101B0443EA00231343D4F8180543EA2A
:1034B0000163C4F8143500EB8B000422009900F07E
:1034C000FFF9D4F810350BF1010B5B45524609F1B9
:1034D00004090AF1040ADCD802F1090302F1080B1D
:1034E00002F10B0102F1050E02F1060C02F10709CF
:1034F000009302F10A030C3250460191DA4602921F
:1035000018F80C2018F80EC018F8000018F809E098
:10351000D4F81C15120442EA0C22104340EA0E694A
:10352000894509D94FEA8901D4F82405039302F0AB
:1035300003FB039BC4F82405C4F81C95B9F1000FE4
:1035400000F0FA8004F5A463009304F20C5308EB36
:103550000A094FF0000B019399F8021099F8013015
:1035600099F8002099F803E0D4F82405090441EA09
:1035700003231343019A009943EA0E63536100EB5E
:103580008B00042200F09CF9D4F81C350BF1010BE0
:103590005B45524609F104090AF1040ADCD8531DBF
:1035A000D11D0093D346931D019102F1080918F82B
:1035B0000310009B019A18F8030018F80B3018F854
:1035C00002A0D4F82825090441EA00210B4343EA6C
:1035D0000A6A924507D94FEA8A01D4F8300502F009
:1035E000ABFAC4F83005C4F828A5BAF1000F38D0FA
:1035F0004FF0000A04F22C53D346009300239E465A
:1036000008EB090111F8012B9A400833202B4EEAF0
:10361000020EF7D109F104018E4471450AD209F175
:10362000030343440A46013213F8010F03F8010C67
:103630007245F8D308EB0E024B1E02F801BCD4F819
:10364000300500994344C4F82C3500EB8A0004226D
:10365000F14600F035F9D4F828350AF1010A53454E
:10366000CCD8012384F808353DE533680A930A99DC
:1036700033680C93E36894F821C094F8200094F820
:103680001CE0627F94F81E8094F81F90C91A354B95
:1036900040EA0C2094F822C04EEA0222A3FB01E388
:1036A00094F823E040EA0C4C42EA08424CEA0E6CE3
:1036B00042EA0962DFF8B8E0DDF830809B094FF498
:1036C0007A7002F1FF39284A00FB1311E64402FB2D
:1036D00001EE244AA2FB082C4FEA9C1C224A00FB64
:1036E0001C8021464B4402FB10E2CCEB0303236118
:1036F00004F1100041F8142F00F0CEF833680B935A
:103700000B9BC4F80035EEE4226818490D910E9326
:103710000F930A21136820460DAA9847336808932F
:10372000089BE3602046FFF70BFAC4F8FC54C4F88A
:1037300000554FF0FF3000E5DDF8089037E70C2327
:103740004FF0080B029309220B230193DA460A2358
:1037500000924FF007094FF0060C4FF0050E0420C1
:10376000CEE600BFD34D621040420F00509D0000D6
:1037700000CA9A3BF0B5344C344A354B3548226088
:1037800000214FF46142A260C4F80C35606084F8F7
:10379000F814C4F81015C4F81815C4F81C15C4F8AA
:1037A0002415C4F82815C4F8301504F5836204F212
:1037B0007C4342F8041F9342FBD12749002243F87F
:1037C000042F8B42FBD1254A002102F5007302F839
:1037D000011F9342FBD12248002103F8011F9842A8
:1037E0004FF00002F9D11F4B1F48204F204D214EB2
:1037F0000760DF60A261204F204C1C630021204C39
:103800009F60DFF890E04460012744611C611C6206
:103810008160C16001618161C16101625961996129
:10382000D96159629962D962C3F800E0154C164813
:1038300016495F632A74164B3271AF612C60686160
:10384000A960EB603360F0BD8411FF1FF89D00009C
:10385000989D00000807FF1F6416FF1F9F11FF1FA0
:103860009F15FF1F3C17FF1FBC16FF1FC89D0000C0
:10387000E416FF1F7417FF1F40A000008106000020
:10388000B09D0000249E0000710700004CA00000C5
:10389000E09D00000C9E000070B40D68064B0468AB
:1038A000064E6A0AA3FB0232D3091C4406FB1353DB
:1038B00004600B6070BC7047834B040000CA9A3BE5
:1038C00001B441EA000313F003036FD1403A41D33E
:1038D00051F8043B40F8043B51F8043B40F8043BEA
:1038E00051F8043B40F8043B51F8043B40F8043BDA
:1038F00051F8043B40F8043B51F8043B40F8043BCA
:1039000051F8043B40F8043B51F8043B40F8043BB9
:1039100051F8043B40F8043B51F8043B40F8043BA9
:1039200051F8043B40F8043B51F8043B40F8043B99
:1039300051F8043B40F8043B51F8043B40F8043B89
:1039400051F8043B40F8043B51F8043B40F8043B79
:10395000403ABDD2303211D351F8043B40F8043B19
:1039600051F8043B40F8043B51F8043B40F8043B59
:1039700051F8043B40F8043B103AEDD20C3205D329
:1039800051F8043B40F8043B043AF9D204320AD01F
:10399000D2071CBF11F8013B00F8013B03D30B78A1
:1039A00003704B78437001BC704700BF0C2A4AD3A8
:1039B00010F0030311D0C3F10403D21ADB071CBFBC
:1039C00011F8013B00F8013B07D311F8013B00F867
:1039D000013B11F8013B00F8013B11F003033FF4F8
:1039E00075AF30B4043AC91AC3F1040C51F8044B52
:1039F000022B19D0032B0BD0240A51F8043B1D06CF
:103A000044EA050440F8044B1C46043AF4D216E09C
:103A1000240E51F8043B1D0244EA050440F8044B0F
:103A20001C46043AF4D20AE0240C51F8043B1D046D
:103A300044EA050440F8044B1C46043AF4D204322C
:103A4000B1EB0C0130BC043AA0D3013A11F8013BB0
:103A500000F8013BF9D20B7803704B7843708B78F8
:103A6000837001BC704700BF08B5104C08E02368A4
:103A700059050DD423681A050FD42368DB0411D42B
:103A800023685803F3D500F0D3FB23685905F1D51B
:103A900000F00EF823681A05EFD500F009F8236846
:103AA000DB04EDD500F004F8EAE700BF3480044001
:103AB00008B5FFF7D9FF00BF014B10221A807047ED
:103AC00000200540704700BF094908B50B6830B1B8
:103AD0006A461844A2F50052904202D20860184685
:103AE00008BD01F0ADFF0C2303604FF0FF3008BDAF
:103AF000FC06FF1F10B4114B53F8302092F880429F
:103B000034B1012379B182F880305DF8044B7047FD
:103B100003EBC0035B681A6851B922F002021A6015
:103B20005DF8044B704782F800315DF8044B704734
:103B300042F003021A605DF8044B704774A0000065
:103B40001C4A02EBC00301295B6811D004291BD079
:103B500052F83000002280F8802229B1022920D0BA
:103B6000032922D01A6070474FF480721A607047A0
:103B700052F830004FF4A27280F880121A601A686E
:103B800022F020021A60704752F830104FF4A272EF
:103B9000012081F880021A601A6842F020021A603F
:103BA000704740F203121A6070474FF481721A6036
:103BB000704700BF74A0000030B4054B054D064CA3
:103BC000002210211A602A602060196030BC704702
:103BD00014D0034004D0034000D0034038B5A0F116
:103BE0004203012B04461FD9002975DD904B1B7839
:103BF000012505FA03F28A4202D83F2827D938BDA9
:103C0000C21E012A2BD9A0F11D02012A73D90E2848
:103C100056D9A4F12302032A57D9864A126802FB17
:103C2000011222FA03F320E0814B1B780B2B0AD9F7
:103C30000C2B1CBF0C3B1941422C084657D0BDE849
:103C4000384001F087BAC3F10C039940F4E72946E4
:103C5000FFF750FF2946BDE83840FFF771BF764AAD
:103C6000126802FB011222FA03F3A21E242A00F2B8
:103C7000D580DFE812F0CC00C500BE00B700B00070
:103C8000A900A2009B009400D300D300D3008D00B4
:103C9000D300D300D300D300D30086007F00780088
:103CA0007100D300D300D300D300D3006A006300B7
:103CB000D300D300D300D3005C0055004E00470072
:103CC00044F28412C240D207A3D55C4A126802FBB8
:103CD000011222FA03F3C8E73F2890D80021FFF72A
:103CE00009FF20460121BDE83840FFF729BFBDE8A4
:103CF000384001F011BA524A126802FB011222FA4E
:103D000003F3B2E74F49504A0B604FF4517313600D
:103D100038BD4E494E4A0B604FF45173136038BDA5
:103D20004C494D4A0B604FF45173136038BD4B49F9
:103D30004B4A0B604FF45173136038BD49494A4AEE
:103D40000B604FF45173136038BD4849484A0B600B
:103D50004FF45173136038BD4649474A0B6040F237
:103D60004443136038BD4549454A0B6040F2444323
:103D7000136038BD4349444A0B6040F2444313602A
:103D800038BD4249424A0B6040F24443136038BD9B
:103D90004049414A0B6040F24443136038BD3F49FB
:103DA0003F4A0B6040F24443136038BD3D493E4AF0
:103DB0000B6040F24443136038BD3C493C4A0B6001
:103DC00040F24443136038BD3A493B4A0B6040F22D
:103DD0004443136038BD3949394A0B6040F24443CB
:103DE000136038BD3749384A0B6040F244431360D2
:103DF00038BD3649364A0B604FF45173136038BDF5
:103E00003449354A0B604FF45173136038BD334960
:103E1000334A0B6040F24443136038BD3F2C3FF6F9
:103E2000EEAE7F29D4BF00210121204657E700BF15
:103E30000007FF1F088003400890034008900B40D4
:103E400008800B4048900B402CB0044040900B4041
:103E500028B0044038900B4024B0044030900B4010
:103E600020B0044018800B404CA0044010800B4050
:103E700048A004401880034008B00440108003406C
:103E800004B004404080034018C004403880034020
:103E900014C0044018900B4004C004402880034024
:103EA00010B00440208003400CB0044028900B4028
:103EB0000CC0044020900B4008C0044030800340F8
:103EC00010C00440488003401CC0044018900340C8
:103ED00034900440109003403090044010900B4008
:103EE00000C004403F2801D8FFF704BE704700BF60
:103EF0003F2801D8FFF724BE704700BF2DE9F843E3
:103F0000054672B6204F214B214A1B683C68126857
:103F100062B6520102D5322B88BF013495B3C3F586
:103F2000EA331C4EDFF86490DFF86480BF334FF44F
:103F30007A72A6FB031302FB04F404EB931472B62B
:103F4000D9F800103A68D8F800E062B6C1F5EA3353
:103F5000BF33A6FB03031EF0806FC4EB93134FF433
:103F60007A7002D0322988BF013200FB0233B3F5E8
:103F70007A7F04D3013D05D004F57A74DFE700F0C1
:103F8000E5FFDCE7BDE8F8838417FF1F18E000E0D9
:103F900004ED00E089888888F8B53E4B3E49DFF89B
:103FA00018C13E4E3E4ADFF814E13E4D3E4C3F4FB5
:103FB0004FF0006018604FF0805018604FF00050D4
:103FC00018604FF0804018604FF0004018600020EB
:103FD000086028234EF6FF71CCF80010CEF80030B0
:103FE00033600EF5012E13602B60236005F500256C
:103FF0003B6004F50024B36207F50027936206F5E1
:10400000012602F501220EF1100E05F6E87504F600
:10401000E87407F57F67103220362B602360CEF8F6
:1040200000303B6013603360214EBB619361092215
:104030003260A7F5002706F58056203F0836386025
:104040003160BB60F36047F8042C06F5FD2607F5E8
:10405000FE2706F2FC76043730603960B360FB60FF
:1040600046F8042C0836C7F8FC0F06F6FC76114813
:1040700031602B602360026000F0DEFF1920FFF743
:104080003DFF00F00FFD40F21310BDE8F840FFF7D0
:1040900035BF00BF04E100E004800340148003400A
:1040A0001C800340248003402C8003403480034064
:1040B0000080034000900B40088003400C800340C8
:1040C000431E032B14D872B60A4951F8230068B175
:1040D00070B4094C058834F81320466841F8236011
:1040E000521B24F8132062B670BC704762B670474A
:1040F00000207047E017FF1FE818FF1F0138032852
:104100000BD872B6074B53F8203043B100205B68E0
:104110000130002BFBD162B6704700207047184673
:10412000F9E700BF3418FF1FF0B472B61A491B4EEE
:10413000012311F8014B194F9A00240742F00105A1
:1041400005D556F8324064B156F83520BAB101337E
:10415000052BEED162B6124B00221A70F0BC00F0B3
:1041600023BD0F4C0F4D217807EB43130830013965
:104170005860217047F8325062B6F0BC7047084A68
:104180000949137807EBC5040830013B60601370E0
:1041900047F8351062B6F0E79CA200000000FF1F50
:1041A0005D18FF1F88004000C8004000431E032B1D
:1041B0001DD81B4A400140F0100030B4104472B6C4
:1041C000184CE25C032A1BD8DFE802F00212151734
:1041D00003220D88E25410F0080F14BFC82388236F
:1041E00043EA054308314160036062B630BC704762
:1041F00008300222EDE70522EBE708300422E8E769
:10420000094A52F8230038B1084A52F823004160A5
:1042100042F8231062B6E9E742F82310034AF7E7B1
:104220000000FF1F6C18FF1F3418FF1F4418FF1FEA
:104230002DE9F04FDFF814B3DFF814A387B044E0A2
:10424000AD4F4FEA930807EBC809013ED9F80420A7
:1042500003F00803F6B2A2F1080003F0FF04002BFC
:1042600040F0038157F838301B0C99B222F8081C33
:10427000002B00F0F180A14B22F8064C42F8044CD0
:1042800053F82620002A00F06C819D4D55F8263009
:1042900058609C4C45F8260034F81630194424F830
:1042A000161000F061FC002800F05481964A974BEC
:1042B00019F0080F00F1080018BF1346C9F80400F0
:1042C00047F8383008238BF800309BF80040E4B200
:1042D00060071BD58E4B1B78ABB18E490A7802F074
:1042E000FF032AB1013BDBB20B70002B00F0B5835A
:1042F00089490A7802F0FF032AB1013BDBB20B7057
:10430000002B00F0F68004238BF8003004F0080343
:1043100003F0FF02002B00F0D5809AF80030DBB2EA
:104320001E098DD19C08744F57F8342007EBC40147
:10433000C2F38302013A49680C2A7ED8DFE802F012
:1043400081817D7D7D7D7D7D427D7D7D070008684D
:10435000724B734D01936C4B4A68724E47F8343080
:1043600081B240F281646D4B6A60286000220120B6
:10437000A1423A611A60BA61307000F2F680B1F57C
:10438000D06F80F0E882B1F5817F00F0D38200F237
:10439000D881802900F04D81822940F09282A9883D
:1043A000614B01F07F01042900F28C825F4C89008F
:1043B0000B44227062701A78930740F138832070A2
:1043C00002203AE1554B01931A6862B3584B5949A0
:1043D000544E18880C7896F800E04028054684F082
:1043E000010C28BF402544F00204BEF1000F81F803
:1043F00000C0A0EB050007EBC40C0CBF8821C8214E
:1044000080B28EF0010E41EA0541CCF804201880FC
:1044100086F800E02A4447F8341010B9402D18BF40
:104420000022019B1A603E4B1A88B2F5A06F04D19E
:1044300000219A785970404B1A70404A012313703A
:1044400040E7374A158842F22100854200F0528148
:104450002D4A47F83420F0E72B4A2C4B19F0080F6F
:1044600018BF134647F838302CE700F09DFB344A5C
:10447000344952F82630002B00F02D8158688C5DAD
:1044800042F8260003F10802C9F80420032C05D8DD
:10449000DFE804F0120F150204228A551A8819F079
:1044A000080F0CBF8823C82343EA024347F838307B
:1044B00008E702228A55F1E703228A55EEE7052232
:1044C0008A55EBE7E00700F17881210600F1A2812F
:1044D000A20706D51C4A1D4913780220DBB21370CF
:1044E0000870E30602D5194B10221A7007B0BDE818
:1044F000F08F00F0C5FC06E70000FF1FE017FF1F6C
:104500008C17FF1FE818FF1FC800400088004000FC
:104510006818FF1FF117FF1F7018FF1F8817FF1F74
:104520005418FF1FF017FF1FC02007406018FF1F1F
:104530009C17FF1F5C18FF1F98200740942007401E
:104540003418FF1F6C18FF1F882007408020074089
:1045500090200740B74A47F83800137801331370AA
:10456000B0E643F82600B44D93E642F22104A1429E
:1045700000F0AD8000F20E81B1F5086F00F05481BB
:10458000B1F5106F40F09D81AC4AA9781170AC4D27
:10459000042402E00134142C0CD057F834301906EE
:1045A000F8D505EBC40301345868083800F0FCFA6C
:1045B000142CF2D1A349A44BA44A0291A449A54CBE
:1045C0009D4D039405964FF0000988461C461646FB
:1045D0000495206828B1456800F0E6FA2846002DC9
:1045E000F9D100232360049B30681A46002342F867
:1045F000293028B1456800F0D7FA2846002DF9D1B6
:1046000000223260029A98F800301146002241F8E8
:10461000042B039A0291023B4FF0000122F819107B
:10462000032B00F2B481DFE813F0E201AE01E201F6
:10463000AE01894C022022706270EA88824280F0CA
:104640000D8286490D78402A45F0020E944607EB0C
:10465000CE0028BF4FF0400C04EB0C0344600293E3
:10466000CCEB02004FEA0C484FF001090022C824AD
:1046700044EA080385F0010447F83E3032700C70BC
:10468000DFF8BCE1764BDFF8D481002840F02081D0
:10469000BCF1400F1BD144F0020407EBC403029F9E
:1046A000DFF89CE15F60002A40F02781020442F0BD
:1046B000880286F800900D7007444EF834203B467F
:1046C000402804D10020674A019910800B60664A97
:1046D00001231370B1E68B5D032B00F2248101A24C
:1046E00052F823F0C5420000C5420000094800000E
:1046F0000F480000928862B95C4ACD1D11F8013B59
:1047000002F8013F8D42F9D1594A1268862A00F019
:10471000C9805249524E0878327840F0020580F044
:104720000100087007EBC501002A4FF00000486047
:1047300082F001020CBF8821C82147F83510327081
:1047400086E640F20232914240F0B080A98801F042
:104750007F01042900F2B5806A88002A40F0B18008
:10476000444C89000C448146217841F002012170BB
:104770000020029080468446044638490D7845F072
:10478000020E07EBCE03B9F1000F5C600CBF88246A
:10479000C8246DE742F22124A14240F08E80A9880E
:1047A000002940F04281344B344A354C1B68AD78C7
:1047B000136081460A462570DAE72B49204B3148C1
:1047C000264EDFF8B0C0304DDFF8D4E02F4F022482
:1047D0000C702F4C18605C6098602E48D8601A618D
:1047E0009A610D2332702C4C8CF800302B4EFF2335
:1047F0002B7001209F258EF800303A7033702570A1
:10480000087007B0BDE8F08F00238B555AE50123EF
:104810008B5557E51749224B80220D2008701A70DE
:10482000A2077FF55EAE55E6044A0B4C1278227063
:1048300003E700BF5D18FF1F8C17FF1F6818FF1FDD
:104840000000FF1F4418FF1FE017FF1F3418FF1F51
:104850006C18FF1FE818FF1F6018FF1F5C18FF1F70
:10486000F017FF1F9C17FF1F94200740EF18FF1F32
:10487000F018FF1FC02007408417FF1FF818FF1F04
:104880008018FF1F880040008820074098200740BC
:10489000A017FF1FF417FF1F842007408C2007403C
:1048A00080200740754A0F21117032E7B1F5A06FE3
:1048B00007D100224FF001095AE742F2213291421A
:1048C000F7D06F4B0F221A706E4A01231370B4E5B4
:1048D00040287FF6E0AE44F002040EEBC401029ED5
:1048E0004E60AAB183F80090674A88F800503346BA
:1048F000403840334EF83420E5E6029B86F80090BD
:10490000020442F0C8020D7003444EF83420D7E68A
:1049100083F80090029B5D4A88F80050403840338D
:104920004EF83420CFE619F0080F0CBF0223032302
:104930008B55C7E4A98801F07F010429C1D86A8892
:10494000002ABED14E4C89000C448146217821F0CA
:10495000020121700CE74E4A5468002CB1D06888DF
:10496000B5F804E003E00C325468002CA9D0138899
:104970008342F8D153887345F5D1000A03280CBF50
:104980002078108959E64FF0010388F8003009F1CA
:104990000109B9F1040F04F1040406F1040608F159
:1049A00001087FF416AE3B4B059E3B4DDFF8F080CF
:1049B000002018704FF0010918F8013B05F8043B7E
:1049C0001A0719D44FEA890444F0020244F00304A0
:1049D000002347F8323047F83430304B9D4209F11C
:1049E0000109E9D196F8009089F00102C0E64FF084
:1049F000000388F80030CAE700F0B6F818B307EBF8
:104A000049134FEA890408305860204B47F8343086
:104A100000F0AAF868B144F0010307EBC3020830C4
:104A20005060194A47F83320CEE78146A0E60220BD
:104A300003E6184B44F001021B7847F83200154A90
:104A400001331370C0E7134B124A1B784FEA8904F5
:104A5000013347F834001370DAE700BE402884467B
:104A600028BF4FF0400C04EB0C03CCEB00004FEAE6
:104A70000C48029300224FF001097EE6F117FF1F58
:104A8000C020074094200740C80040008800400034
:104A9000A0A200005D18FF1FC4200740D4200740DB
:104AA0009CA200002DE9F04100F072FB0023234995
:104AB0001A4601EBC30041F833200133142B426046
:104AC0004FF000041D48F4D11D491E4A0B68DFF861
:104AD0008C801D4F1D4D1E4EDFF884C0DFF884E032
:104AE00043F480230B60136843F040731360C0F3FA
:104AF000072388F8003001F52831C0F307433B70E5
:104B0000000EFF23CC3102F5C922287002F5847211
:104B10008CF800300F4D8EF800300F4833700123B1
:104B200008F8083C70260C704FF40014102107F8A8
:104B30002C3C2E7004601170BDE8F0810000FF1F56
:104B40003480044000D80040B0200740B420074023
:104B50001020074035E400E004E100E09C2007401D
:104B6000802007408820074072B60D480268B2FADC
:104B700082F30B2B10DC4FF00041D94022EA0102F6
:104B8000026062B6074803EBC303DB00C2180021D2
:104B9000C15010465160704762B60020704700BF98
:104BA0000407FF1F9803FF1F0D4B0E4AC31AA2FBF9
:104BB00003231B090B2B0CD80B4A127852B972B67F
:104BC0000A484FF00041026821FA03F31A430260D9
:104BD00062B67047064A1278002AF0D0FFF7A4BAEE
:104BE0009803FF1F398EE3385D18FF1F0407FF1F6E
:104BF0006818FF1F38B50F4D286878B143880288C0
:104C0000C118013393420C7A02D24380204638BD4A
:104C1000FFF7CAFF002320462B6038BD064B1B78E8
:104C20002BB10320FFF74CFA28600028E6D14FF0A3
:104C3000FF3038BD7C18FF1F6818FF1F10B5094CE6
:104C4000206818B143881844007A10BD064B1B78C1
:104C50002BB10320FFF734FA20600028F2D14FF087
:104C6000FF3010BD7C18FF1F6818FF1F044B054A5A
:104C70001B6890881BB11A885B88D31A1844704748
:104C80007C18FF1FE818FF1F0B4B1B789BB110B55A
:104C90000A4C206848B1FFF787FF002303202360F8
:104CA000FFF70EFA30B1FFF77FFF0320FFF708FA96
:104CB0000028F8D110BD70476818FF1F7C18FF1F2F
:104CC0002DE9F04FDFF8F89083B0012289F8002039
:104CD000019169B3DFF8EC80364F019E8346D8F826
:104CE0000000B0B3344D4488C4F14001B14228BF44
:104CF000314604EB010E00221FFA8EFE2A70761A4E
:104D0000A0F802E000F1080251B1013C22445944EC
:104D10001BF8014B02F8014F8B45F9D1B0F802E0C6
:104D2000BEF13F0F0BD8254A05211170002ED6D1B8
:104D30000198002389F8003003B0BDE8F08F4022CD
:104D4000028001460420FFF731FA0022C8F8002053
:104D5000E9E73A782AB3184D4DF2E9044FF0010A19
:104D600007E0013C16D02A78A2B900F0EFF83A78B3
:104D7000BAB10420FFF7C2F90728F2D889F800A0D9
:104D8000FFF7F2FEC8F800000028ACD10C4B013C44
:104D90001870E8D101234FF0FF302B7003B0BDE84D
:104DA000F08F00234FF0FF3089F8003003B0BDE8EA
:104DB000F08F00BF6818FF1F7818FF1F7018FF1FC3
:104DC0007118FF1F7418FF1F00B583B002AB0121DB
:104DD00003F8010D1846FFF773FF03B05DF804FBFD
:104DE00038B50E4D0E4C28680123237028B1408839
:104DF00000232370C0F1400038BD0A4B1B7813B963
:104E00000020207038BD0420FFF778F90728F7D874
:104E1000FFF7AAFE28600028E9D1F1E77418FF1F08
:104E20007118FF1F6818FF1FF8B5114B1B788BB165
:104E3000104E114D346801272F7064B10F4A6388FA
:104E400000271770214623800420FFF7AFF9376051
:104E500000232B70F8BDFFF787FE084B28B10146F1
:104E600004201C70FFF7A2F9F2E71F70F0E700BF03
:104E70006818FF1F7418FF1F7118FF1F7018FF1F9D
:104E800038B50E4B1B7873B90D4C216861B103F036
:104E9000FF054B880B800420FFF788F9256038BD9B
:104EA000084B01221A7038BDFFF75EFE0028F7D0CC
:104EB0000146BDE838400420FFF778B97118FF1F9C
:104EC0007418FF1F7018FF1F70B5EFF3108272B6D1
:104ED0000C4C206880B10C4E00254369236073B1EF
:104EE0009D6102B962B6457783689847EFF31082F7
:104EF00072B620680028F0D102B962B670BD336086
:104F0000EFE700BF8418FF1F8818FF1FFFF7DCBF03
:104F1000024A136801331360704700BF8417FF1FF4
:104F200008B5FCF75BFBFCF7B7FB00F00FF8FAE7FE
:104F3000FFF7AABEFFF782BEFFF798BEFFF774BF68
:104F4000FFF74EBF08461146FFF7BABE2DE9F843FA
:104F5000314E337893B1314F3A787AB90122D9077B
:104F60003A7036D49A0719D400225B073A7005D5F7
:104F70002B4B1A6812B1EFF305820AB1BDE8F88332
:104F8000EFF3108172B6186818B1264C2278002A07
:104F90002ED00029F2D162B6BDE8F883DFF8908008
:104FA00098F80020002ADFD0DFF88890002405E080
:104FB000013498F80030E4B2A34212D959F82450D1
:104FC0002B6828461B6998470028F1D02B69984721
:104FD000EEE7FFF74BFEC8B9134B1B781BB93378CC
:104FE000C0E73378C0E7337803F0FE033370B9E7E6
:104FF00045691D60012323705DB1AA6101B962B6E4
:1050000000254577836898472570B7E700F0FEF8DC
:10501000E2E7064B1D60F1E71807FF1F9518FF1F19
:105020009018FF1F9418FF1FBE07FF1F8C18FF1F4B
:10503000B018FF1F9818FF1F30B42948294A2A4B7F
:105040002A4D6024E121047011701B78284C082B34
:1050500030D00A2B2748284937D00C2B0CBF3522DB
:105060005D2212232A60236002600B60234B2449D7
:105070001B78244ABBB101230B601360224B2349E8
:105080001B78234A012B26D9042B0FD9082B1ED9B4
:10509000102B94BF862387230B6013601D4B0122C6
:1050A0001A7030BC70470B601360E7E784230B6015
:1050B0001360F3E700F58E200F49083021221323F7
:1050C0002A60236002600B60D0E73922F7E785236E
:1050D0000B601360E2E780230B601360DEE700BF24
:1050E00000400740014007401907FF1F08B0034078
:1050F0000CB0034008B00B400CB00B409718FF1FDA
:1051000020B0034020B00B401A07FF1F24B003401B
:1051100024B00B409618FF1F0A4A0B49136843F44A
:10512000805313600B7843B9084BC0221A70084BA8
:1051300080F30C0000B218807047044B80221A7074
:10514000F5E700BF2C8004409718FF1F21C00C40DA
:1051500000C00C400A4A0B49136843F40053136023
:105160000B7843B9084BC0221A70084B80F30C002F
:1051700000B218807047044B80221A70F5E700BF18
:105180002C8004409718FF1F21D00C4000D00C4009
:1051900072B6184A184B19491160702280211A7092
:1051A0001A46197013781B06FCD510B5144B84B041
:1051B000186862B6134B144C984298BF00EB8000FD
:1051C00001A998BF40000A2200F022F801A9204658
:1051D000002311F8012B01333AB10A2B20F8022FDA
:1051E000F7D11623237004B010BD5B00DBB223702F
:1051F00004B010BD0400024000000240000007415E
:105200000C0002407F969800A807FF1F704700BF60
:10521000F0B44D1E2E46002400E00134B0FBF2F342
:1052200002FB1300092800F130078ABF3730F8B2BB
:10523000C0B206F8010F1846002BEED10A195370C0
:105240004CB1107815F8016F28700133E01A8342D1
:1052500002F80169F5DB0846F0BC704781F00041B7
:1052600002E000BF83F0004330B54FEA41044FEA4B
:10527000430594EA050F08BF90EA020F1FBF54EAE6
:10528000000C55EA020C7FEA645C7FEA655C00F082
:10529000E2804FEA5454D4EB5555B8BF6D420CDD53
:1052A0002C4480EA020281EA030382EA000083EAD6
:1052B000010180EA020281EA0303362D88BF30BD76
:1052C00011F0004F4FEA01314FF4801C4CEA1131CC
:1052D00002D0404261EB410113F0004F4FEA03332B
:1052E0004CEA133302D0524263EB430394EA050FB6
:1052F00000F0A780A4F10104D5F1200E0DDB02FA25
:105300000EFC22FA05F2801841F1000103FA0EF2B8
:10531000801843FA05F359410EE0A5F120050EF17E
:10532000200E012A03FA0EFC28BF4CF0020C43FAAF
:1053300005F3C01851EBE37101F0004507D54FF0BC
:10534000000EDCF1000C7EEB00006EEB0101B1F50C
:10535000801F1BD3B1F5001F0CD349085FEA300052
:105360004FEA3C0C04F101044FEA445212F5800F5D
:1053700080F09A80BCF1004F08BF5FEA500C50F1FA
:10538000000041EB045141EA050130BD5FEA4C0CDD
:10539000404141EB010111F4801FA4F10104E9D166
:1053A00091F0000F04BF01460020B1FA81F308BF5D
:1053B0002033A3F10B03B3F120020CDA0C3208DD29
:1053C00002F1140CC2F10C0201FA0CF021FA02F104
:1053D0000CE002F11402D8BFC2F1200C01FA02F174
:1053E00020FA0CFCDCBF41EA0C019040E41AA2BF99
:1053F00001EB0451294330BD6FEA04041F3C1CDA61
:105400000C340EDC04F11404C4F1200220FA04F080
:1054100001FA02F340EA030021FA04F345EA03012A
:1054200030BDC4F10C04C4F1200220FA02F001FAEC
:1054300004F340EA0300294630BD21FA04F029466E
:1054400030BD94F0000F83F4801306BF81F4801107
:105450000134013D4EE77FEA645C18BF7FEA655C7A
:1054600029D094EA050F08BF90EA020F05D054EA4C
:10547000000C04BF1946104630BD91EA030F1EBF51
:105480000021002030BD5FEA545C05D14000494155
:1054900028BF41F0004130BD14F580043CBF01F548
:1054A000801130BD01F0004545F0FE4141F470012E
:1054B0004FF0000030BD7FEA645C1ABF1946104609
:1054C0007FEA655C1CBF0B46024650EA013406BF0A
:1054D00052EA033591EA030F41F4002130BD00BFC9
:1054E00090F0000F04BF0021704730B54FF4806486
:1054F00004F132044FF000054FF0000150E700BF07
:1055000090F0000F04BF0021704730B54FF4806465
:1055100004F1320410F0004548BF40424FF0000152
:105520003EE700BF42004FEAE2014FEA31014FEA95
:1055300002701FBF12F07F4393F07F4F81F06051E4
:10554000704792F0000F14BF93F07F4F704730B553
:105550004FF4607401F0004521F0004120E700BFE6
:1055600050EA010208BF704730B54FF000050AE06D
:1055700050EA010208BF704730B511F0004502D56E
:10558000404261EB41014FF4806404F132045FEA70
:10559000915C3FF4DCAE4FF003025FEADC0C18BF15
:1055A00003325FEADC0C18BF033202EBDC02C2F10B
:1055B000200300FA03FC20FA02F001FA03FE40EA9D
:1055C0000E0021FA02F11444C1E600BF70B54FF09D
:1055D000FF0C4CF4E06C1CEA11541DBF1CEA13557F
:1055E00094EA0C0F95EA0C0F00F0DEF82C4481EAE7
:1055F000030621EA4C5123EA4C5350EA013518BF07
:1056000052EA033541F4801143F4801338D0A0FBF3
:1056100002CE4FF00005E1FB02E506F00042E0FBA0
:1056200003E54FF00006E1FB03569CF0000F18BFA6
:105630004EF0010EA4F1FF04B6F5007F64F540744E
:1056400004D25FEA4E0E6D4146EB060642EAC621E1
:1056500041EA55514FEAC52040EA5E504FEACE2E4E
:10566000B4F1FD0C88BFBCF5E06F1ED8BEF1004F51
:1056700008BF5FEA500E50F1000041EB045170BDCD
:1056800006F0004646EA010140EA020081EA030111
:10569000B4EB5C04C2BFD4EB0C0541EA045170BD0D
:1056A00041F480114FF0000E013C00F3AB8014F187
:1056B000360FDEBF002001F0004170BDC4F10004D0
:1056C000203C35DA0C341BDC04F11404C4F1200551
:1056D00000FA05F320FA04F001FA05F240EA0200AC
:1056E00001F0004221F0004110EBD37021FA04F6E2
:1056F00042EB06015EEA430E08BF20EAD37070BD9C
:10570000C4F10C04C4F1200500FA04F320FA05F0FA
:1057100001FA04F240EA020001F0004110EBD370FC
:1057200041F100015EEA430E08BF20EAD37070BD6C
:10573000C4F1200500FA05F24EEA020E20FA04F345
:1057400001FA05F243EA020321FA04F001F00041F4
:1057500021FA04F220EA020000EBD3705EEA430E65
:1057600008BF20EAD37070BD94F0000F0FD101F094
:105770000046400041EB010111F4801F08BF013CCD
:10578000F7D041EA060195F0000F18BF704703F00B
:105790000046520043EB030313F4801F08BF013D92
:1057A000F7D043EA0603704794EA0C0F0CEA13554E
:1057B00018BF95EA0C0F0CD050EA410618BF52EA08
:1057C0004306D1D181EA030101F000414FF000000E
:1057D00070BD50EA410606BF1046194652EA43061C
:1057E00019D094EA0C0F02D150EA013613D195EA90
:1057F0000C0F05D152EA03361CBF104619460AD1D8
:1058000081EA030101F0004141F0FE4141F47001E1
:105810004FF0000070BD41F0FE4141F4780170BDD1
:1058200070B54FF0FF0C4CF4E06C1CEA11541DBF36
:105830001CEA135594EA0C0F95EA0C0F00F0A7F838
:10584000A4EB050481EA030E52EA03354FEA013165
:1058500000F088804FEA03334FF0805545EA131378
:1058600043EA12634FEA022245EA111545EA106540
:105870004FEA00260EF000419D4208BF964244F1D7
:10588000FD0404F5407402D25B084FEA3202B61AF6
:1058900065EB03055B084FEA32024FF480104FF4CA
:1058A000002CB6EB020E75EB030E22BFB61A75463E
:1058B00040EA0C005B084FEA3202B6EB020E75EBD1
:1058C000030E22BFB61A754640EA5C005B084FEA39
:1058D0003202B6EB020E75EB030E22BFB61A754606
:1058E00040EA9C005B084FEA3202B6EB020E75EB11
:1058F000030E22BFB61A754640EADC0055EA060ED2
:1059000018D04FEA051545EA16754FEA06164FEA14
:10591000C30343EA52734FEAC2025FEA1C1CC0D1C0
:1059200011F4801F0BD141EA00014FF000004FF04D
:10593000004CB6E711F4801F04BF01430020B4F10E
:10594000FD0C88BFBCF5E06F3FF6AFAEB5EB030CC6
:1059500004BFB6EB020C5FEA500C50F1000041EBC3
:10596000045170BD0EF0004E4EEA113114EB5C0490
:10597000C2BFD4EB0C0541EA045170BD41F4801163
:105980004FF0000E013C90E645EA060E8DE60CEA6B
:10599000135594EA0C0F08BF95EA0C0F3FF43BAF88
:1059A00094EA0C0F0AD150EA01347FF434AF95EA3F
:1059B0000C0F7FF425AF104619462CE795EA0C0F23
:1059C00006D152EA03353FF4FDAE1046194622E7F0
:1059D00050EA410618BF52EA43067FF4C5AE50EACA
:1059E00041047FF40DAF52EA43057FF4EBAE12E7BA
:1059F0004FEA410212F5001215D211D56FF47873F7
:105A0000B3EB625212D94FEAC12343F0004343EA99
:105A1000505311F0004F23FA02F018BF4042704774
:105A20004FF00000704750EA013005D111F00040FE
:105A300008BF6FF0004070474FF00000704700BF94
:105A4000014B1868704700BFE80BFF1F70B50F4E81
:105A50000F4D761BB61018BF002405D0013455F841
:105A6000043B9847A642F9D10A4E0B4D761B04F031
:105A700087FDB61018BF002406D0013455F8043B4A
:105A80009847A642F9D170BD70BD00BF8CA500003B
:105A90008CA5000098A500008CA5000070B48407B8
:105AA00046D0541E002A41D0CDB2034602E0621E09
:105AB000E4B3144603F8015B9A07F8D1032C2ED9FE
:105AC000CDB245EA05250F2C45EA054519D903F164
:105AD00010022646103E0F2E42F8105C42F80C5C75
